:020000040100F9
:10000000FD62938202400100FD12E39E02FE374131
:10001000000213010100B701000293810100B7152E
:1000200000019385C5DD371600011306C6DDB7064E
:1000300000029386060039A083A2050023A0560083
:1000400091059106E3EAC5FEB7150001938505DE2B
:1000500037160001130606DEB70600029386460037
:1000600039A083A2050023A0560091059106E3EA7A
:10007000C5FEB7050002938505003706000213068A
:10008000460021A023A005009105E3EDC5FEB700C1
:100090000001E780C00AB7000001E780C00AB7008E
:1000A0000001E780C01573005010F5BF828000008A
:1000B0000000000000000000000000000000000040
:1000C0006F004000197106C20AC40EC612C816CAD3
:1000D0001ACC1ECE22D026D22AD42ED632D836DA48
:1000E0003ADC3EDEC2C0C6C2CAC4CEC6D2C8D6CA78
:1000F000DACCDECEE2D0E6D2EAD4EED6F2D8F6DA28
:10010000FADCFEDE970000009380E033829092409C
:100110002241B2414242D2426243F24302549254DB
:100120002255B2554256D2566257F2570648964863
:100130002649B649464AD64A664BF64B065C965C5B
:10014000265DB65D465ED65E665FF65F096173004A
:1001500020300589170300006700C32F011106CE68
:1001600022CC26CA4AC84EC697000000E780E02D80
:10017000B705000203C605006319062AB73908004F
:10018000B71408000564130904FA05462380C50066
:1001900097000000E780002C370505004C4D93E5E3
:1001A00005044CCDB715050003A605C0719A0906D4
:1001B00023A0C5C003A609881366060E23A0C9881C
:1001C00003A049800966130606F423A2C98003A68A
:1001D00009811366260023A8C98003A60981136636
:1001E000160023A8C980504D1366260050CD03A5E4
:1001F00005C075767D16718D418D23A0A5C003A520
:1002000005C07D761306F63F718D1305054023A0CA
:10021000A5C003A5C440C1756D8D336525011305C7
:1002200055D623A6A44003A504401365D50023A0FA
:10023000A44003A5C4412A05E35D05FE03A584424D
:10024000137505E01305350723A4A44203A5C44193
:100250001375050465DD03A58442137505E01305D8
:10026000450723A4A44203A5C4411375050465DD15
:1002700003A58442137505E01305150623A4A442C3
:1002800003A5C4411375050465DD03A584421375F8
:1002900005E01305250723A4A44203A5C441137553
:1002A000050465DD03A58442137505E013054507C4
:1002B00023A4A44203A5C4411375050465DD03A569
:1002C0008442137505E0290523A4A44203A5C44173
:1002D0001375050465DD03A0498823A22989231429
:1002E000010002C202C00565930705FAA94E2D4818
:1002F0000A8393085006930280029303600F254EF1
:1003000011A89305501FFD15FDFD03A0498823A2E8
:10031000A988AA87014503A6C4411376060265DEB3
:1003200003A644429376F60F638AD601E365AEFED8
:10033000B306A3002380C6000505F1BF6370050D59
:10034000B306A3001DC10A850346050003A7844226
:10035000137707E0598E23A4C44203A6C441137641
:10036000060465DE0505E311D5FE03A58442137579
:1003700005E0290523A4A44203A5C441137505047F
:1003800065DD01450A8632846305D4020347040013
:1003900013061400130467FC9375F40F3284E3E52D
:1003A00075FE3305D503930507FD93F5F50F2E95DF
:1003B000D9BF637E1505330555024A9563F2A7023E
:1003C000A90703A0498823A2F9889305501FFD15AA
:1003D000FDFDE3E7A7FE9305501FFD15FDFD35B7B5
:1003E000E371F5F2D91703A0498823A2F988930590
:1003F000501FFD15FDFDE367F5FE21B7371600011F
:100400001306C6B0A94597000000E78000353715F0
:100410000001130505AD371600011306C6AF93059D
:10042000000297000000E780A00797000000E78027
:1004300080D2371500011305C5B197000000E78091
:10044000200201A001A07375043072057D818280B5
:1004500009C521457320053082808280411106C67E
:1004600022C400082A86371500011305C5B3930579
:10047000B00297000000E780A002011106CE22CC56
:1004800000102326A4FE2328B4FE0545231AA4FE4B
:100490001305C4FE97000000E78000FB797106D6C3
:1004A00022D400182328A4FE232AB4FE130504FF37
:1004B000232CA4FC0545232EA4FC232404FE114573
:1004C0002320A4FE232204FE130584FDB285970099
:1004D0000000E780C0FA397106DE22DC26DA4AD84D
:1004E0004ED652D456D25AD05ECE62CC66CA6AC8B4
:1004F0006EC68000BE893A89368A328BA9C54449C6
:1005000013FC1400B70A110063040C00930AB00234
:100510004E9C93F54400A1C1C1456372BA04814564
:10052000630F0A0033064B01DA86038706001327A0
:1005300007FC134717008506BA95E398C6FE2E9C64
:100540000C41A5C115A84449138C1900930AD00287
:1005500093F54400F1F1014B0C4199ED99A0AA8B60
:100560005A85D28597000000E7802020AA855E8505
:100570002E9C83A50B0095C5832C450063739C03BB
:10058000A188B5E0834585010D466393C500854587
:10059000B38C8C41D5C50546639FC508E685814C63
:1005A00045A0832BC50104515E85A6855686DA8653
:1005B000528797000000E7804014AA850545D5E1E1
:1005C000DC445E85CA854E86F2506254D25442594C
:1005D000B259225A925A025BF24B624CD24C424DB3
:1005E000B24D2161828704499305000303468501CA
:1005F0002324C4FC832BC501032D05020CC98545AA
:10060000AA8D230CB5005E85EA855686DA86528768
:1006100097000000E780600E21E5268AB3848C41B4
:100620008504FD14CDC403260D01930500035E85EA
:10063000029665D935A093D51C00850C93DC1C006F
:10064000832BC501032D0502032C0501938415009E
:10065000FD149DC403260D015E85E28502966DD9C9
:100660000545F2506254D2544259B259225A925A14
:10067000025BF24B624CD24C424DB24D2161828002
:100680005E85EA855686DA86528797000000E78005
:10069000C006AA850545F1F58326CD005E85CA858D
:1006A0004E868296AA850545CDFD33099041FD59B8
:1006B000FD5433059900630D350303260D015E8556
:1006C000E2850296850475D533B5940159BF83261A
:1006D000CD005E85CA854E868296AA850545D1F1F4
:1006E000014523A84D01832584FC238CBD0095BFC3
:1006F00033B59C01BDB7011106CE22CC26CA4AC82B
:100700004EC652C40010B70711003A89368AAE8926
:10071000630BF60083A60901AA84B28582962A8615
:100720002685854505E2630E0A0083A7C900D285A8
:100730004A86F2406244D2444249B249224A0561A3
:10074000828781452E85F2406244D2444249B249B3
:10075000224A05618280411106C622C40008970022
:100760000000E7800031411106C622C400082A8635
:100770000D057199B307C54063F3F502014581CDBD
:10078000B2958306060093A606FC93C616000506DE
:100790003695E318B6FEB240224441018280B3860A
:1007A000F54093D82600E38B08FCB29793F536000A
:1007B0006314C500014521A801450307060013275E
:1007C00007FC1347170005063A95E318F6FE0147A4
:1007D00091CD13F6C6FF3E968306060093A606FC4F
:1007E00093C616003697FD150506FDF5B705010100
:1007F000138F1510B705FF009382F50F3A95114836
:100800001DA0B3871301B3086E4093753300337690
:1008100057002183B3765700369693160601369615
:1008200041823295B5EDE38808F6468EBE83930586
:10083000000C468363E4B8001303000C93182300F4
:100840000147E3600EFD93F5083FB38EB3009E872A
:10085000944393C5F6FF9D819982D043D58DB3F51E
:10086000E501BA959346F6FF9D8298471982558E09
:100870003376E6019346F7FF9D821983D98ED847D8
:10088000B3F6E6013696B2951346F7FF1D8219833B
:10089000598E3377E601C1072E97E39BD7FB95B7B7
:1008A00081451376C30F0A06B29313360E0C330636
:1008B000C0403376CE000D8A9316260003A60300AF
:1008C00091031347F6FF1D831982598E3376E60193
:1008D000F116B295E5F633F65500A181B3F5550052
:1008E000B29513960501B295C1812E95B24022446E
:1008F00041018280411106C622C4000808412E86AB
:100900008545B2402244410117030000670083007F
:10091000011106CE22CC26CA4AC8001032881356CE
:10092000450029479306102737130001130373B6B8
:100930006373D602130630066369A60A29466377F5
:10094000C50E1306F7FF930664FEB2961365050302
:100950002380A600DDA801479308C4FE9302E4FEAD
:100960003716B7D1130E96750966930E0671056694
:10097000130FB64793034006B7E7F505938FF70FBC
:100980002A893335C50335813306D503B306C940FB
:100990001396060149823306E603935416014182F9
:1009A0001376E67FB3847402858EC6061A96834456
:1009B0001600C182B387E80003460600A3809700B3
:1009C0009A9683C4160083C606002380C700338628
:1009D000E200A30096002300D6007117E3E22FFB8C
:1009E000290713063006E37BA6F413160501498296
:1009F00085669386B6473306D6024582930640063F
:100A0000B306D602158D4605418179171A9583469E
:100A1000150003450500930764FEBA97A380D7002D
:100A20002380A70032852946E36DC5F0060513062D
:100A3000E7FF1A958346150003450500130764FE7A
:100A40003297A300D7002300A700130764FE329754
:100A5000A947918F05464285814697000000E780AF
:100A6000C0A7F2406244D244424905618280397194
:100A700006DE22DC80002324A4FC2326B4FC13051C
:100A800084FC2324A4FE371500011305458F23267B
:100A9000A4FE9305C4FC2328B4FE232AA4FE371524
:100AA0000001130545C52328A4FC0945232AA4FCFD
:100AB000232004FE930584FE232CB4FC232EA4FCE7
:100AC000130504FDB28597000000E780409B0000FD
:100AD000617373657274696F6E206661696C6564B9
:100AE0003A2070657263656E74203C3D2031303071
:100AF0007372632F6D61696E2E727300F00A0001CC
:100B00000B0000000B00000005000000F00A0001CF
:100B10000B0000006A00000021000000F00A000144
:100B20000B0000005B0000002100000072616E6796
:100B30006520656E6420696E6465782063616C6C05
:100B4000656420604F7074696F6E3A3A756E7772A3
:100B50006170282960206F6E206120604E6F6E6585
:100B6000602076616C756530303031303230333032
:100B7000343035303630373038303931303131314A
:100B80003231333134313531363137313831393230
:100B90003032313232323332343235323632373229
:100BA000383239333033313332333333343335330E
:100BB00036333733383339343034313432343334F4
:100BC00034343534363437343834393530353135DA
:100BD00032353335343535353635373538353936C0
:100BE00030363136323633363436353636363736B9
:100BF000383639373037313732373337343735379E
:100C00003637373738373938303831383238333883
:100C10003438353836383738383839393039313969
:100C20003239333934393539363937393839392069
:100C30006F7574206F662072616E676520666F72D3
:100C400020736C696365206F66206C656E677468DD
:100C5000200000002C0B0001100000002F0C0001F0
:040C6000220000006E
:100C64001000000000000000017A5200017C010124
:100C74001B0C02001C00000018000000DCF7FFFF42
:100C84001E00000000420E104481018802420C083C
:100C9400000000001C00000038000000DAF7FFFF2D
:100CA4002200000000420E204481018802420C0808
:100CB400000000001C00000058000000DCF7FFFFEB
:100CC4003A00000000420E304481018802420C08C0
:100CD400000000003000000078000000F6F7FFFF7D
:100CE4002002000000420E405A81018802890392CA
:100CF4000493059406950796089709980A990B9A00
:100D04000C9B0D420C08000024000000AC00000005
:100D1400E2F9FFFF6000000000420E204C810188D0
:100D2400028903920493059406420C080000000013
:100D34001C000000D40000001AFAFFFF100000009D
:100D440000420E104481018802420C080000000099
:100D54001C000000F40000000AFAFFFF8E010000EE
:100D640000420E104481018802420C080000000079
:100D74001C0000001401000078FBFFFF1C000000B1
:100D840000420E104481018802420C080000000059
:100D9400200000003401000074FBFFFF5E0100002E
:100DA40000420E20488101880289039204420C0803
:100DB400000000001C00000058010000AEFCFFFF12
:100DC4006000000000420E404481018802420C0889
:080DD400000000000000000017
:0400000501000000F6
:00000001FF
